{
  "_format": "hh-sol-artifact-1",
  "contractName": "NFTMarketplace",
  "sourceName": "contracts/NFTMarketplace.sol",
  "abi": [
    {
      "inputs": [],
      "stateMutability": "nonpayable",
      "type": "constructor"
    },
    {
      "anonymous": false,
      "inputs": [
        {
          "indexed": true,
          "internalType": "uint256",
          "name": "id",
          "type": "uint256"
        },
        {
          "indexed": true,
          "internalType": "address",
          "name": "nftContract",
          "type": "address"
        },
        {
          "indexed": true,
          "internalType": "uint256",
          "name": "tokenId",
          "type": "uint256"
        },
        {
          "indexed": false,
          "internalType": "address",
          "name": "seller",
          "type": "address"
        },
        {
          "indexed": false,
          "internalType": "address",
          "name": "buyer",
          "type": "address"
        },
        {
          "indexed": false,
          "internalType": "uint256",
          "name": "price",
          "type": "uint256"
        },
        {
          "indexed": false,
          "internalType": "enum NFTMarketplace.State",
          "name": "state",
          "type": "uint8"
        }
      ],
      "name": "MarketItemCreated",
      "type": "event"
    },
    {
      "anonymous": false,
      "inputs": [
        {
          "indexed": true,
          "internalType": "uint256",
          "name": "id",
          "type": "uint256"
        },
        {
          "indexed": true,
          "internalType": "address",
          "name": "nftContract",
          "type": "address"
        },
        {
          "indexed": true,
          "internalType": "uint256",
          "name": "tokenId",
          "type": "uint256"
        },
        {
          "indexed": false,
          "internalType": "address",
          "name": "seller",
          "type": "address"
        },
        {
          "indexed": false,
          "internalType": "address",
          "name": "buyer",
          "type": "address"
        },
        {
          "indexed": false,
          "internalType": "uint256",
          "name": "price",
          "type": "uint256"
        },
        {
          "indexed": false,
          "internalType": "enum NFTMarketplace.State",
          "name": "state",
          "type": "uint8"
        }
      ],
      "name": "MarketItemSold",
      "type": "event"
    },
    {
      "stateMutability": "payable",
      "type": "fallback"
    },
    {
      "inputs": [],
      "name": "admin",
      "outputs": [
        {
          "internalType": "address",
          "name": "",
          "type": "address"
        }
      ],
      "stateMutability": "view",
      "type": "function"
    },
    {
      "inputs": [
        {
          "internalType": "address",
          "name": "nftContract",
          "type": "address"
        },
        {
          "internalType": "uint256",
          "name": "tokenId",
          "type": "uint256"
        },
        {
          "internalType": "uint256",
          "name": "price",
          "type": "uint256"
        }
      ],
      "name": "createMarketItem",
      "outputs": [],
      "stateMutability": "payable",
      "type": "function"
    },
    {
      "inputs": [
        {
          "internalType": "address",
          "name": "nftContract",
          "type": "address"
        },
        {
          "internalType": "uint256",
          "name": "id",
          "type": "uint256"
        }
      ],
      "name": "createMarketSale",
      "outputs": [],
      "stateMutability": "payable",
      "type": "function"
    },
    {
      "inputs": [
        {
          "internalType": "uint256",
          "name": "itemId",
          "type": "uint256"
        }
      ],
      "name": "deleteMarketItem",
      "outputs": [],
      "stateMutability": "nonpayable",
      "type": "function"
    },
    {
      "inputs": [],
      "name": "fetchActiveItems",
      "outputs": [
        {
          "components": [
            {
              "internalType": "uint256",
              "name": "id",
              "type": "uint256"
            },
            {
              "internalType": "address",
              "name": "nftContract",
              "type": "address"
            },
            {
              "internalType": "uint256",
              "name": "tokenId",
              "type": "uint256"
            },
            {
              "internalType": "address payable",
              "name": "seller",
              "type": "address"
            },
            {
              "internalType": "address payable",
              "name": "buyer",
              "type": "address"
            },
            {
              "internalType": "uint256",
              "name": "price",
              "type": "uint256"
            },
            {
              "internalType": "enum NFTMarketplace.State",
              "name": "state",
              "type": "uint8"
            }
          ],
          "internalType": "struct NFTMarketplace.MarketItem[]",
          "name": "",
          "type": "tuple[]"
        }
      ],
      "stateMutability": "view",
      "type": "function"
    },
    {
      "inputs": [],
      "name": "fetchMyCreatedItems",
      "outputs": [
        {
          "components": [
            {
              "internalType": "uint256",
              "name": "id",
              "type": "uint256"
            },
            {
              "internalType": "address",
              "name": "nftContract",
              "type": "address"
            },
            {
              "internalType": "uint256",
              "name": "tokenId",
              "type": "uint256"
            },
            {
              "internalType": "address payable",
              "name": "seller",
              "type": "address"
            },
            {
              "internalType": "address payable",
              "name": "buyer",
              "type": "address"
            },
            {
              "internalType": "uint256",
              "name": "price",
              "type": "uint256"
            },
            {
              "internalType": "enum NFTMarketplace.State",
              "name": "state",
              "type": "uint8"
            }
          ],
          "internalType": "struct NFTMarketplace.MarketItem[]",
          "name": "",
          "type": "tuple[]"
        }
      ],
      "stateMutability": "view",
      "type": "function"
    },
    {
      "inputs": [],
      "name": "fetchMyPurchasedItems",
      "outputs": [
        {
          "components": [
            {
              "internalType": "uint256",
              "name": "id",
              "type": "uint256"
            },
            {
              "internalType": "address",
              "name": "nftContract",
              "type": "address"
            },
            {
              "internalType": "uint256",
              "name": "tokenId",
              "type": "uint256"
            },
            {
              "internalType": "address payable",
              "name": "seller",
              "type": "address"
            },
            {
              "internalType": "address payable",
              "name": "buyer",
              "type": "address"
            },
            {
              "internalType": "uint256",
              "name": "price",
              "type": "uint256"
            },
            {
              "internalType": "enum NFTMarketplace.State",
              "name": "state",
              "type": "uint8"
            }
          ],
          "internalType": "struct NFTMarketplace.MarketItem[]",
          "name": "",
          "type": "tuple[]"
        }
      ],
      "stateMutability": "view",
      "type": "function"
    },
    {
      "inputs": [],
      "name": "getListingFee",
      "outputs": [
        {
          "internalType": "uint256",
          "name": "",
          "type": "uint256"
        }
      ],
      "stateMutability": "view",
      "type": "function"
    },
    {
      "inputs": [],
      "name": "implementation",
      "outputs": [
        {
          "internalType": "address",
          "name": "",
          "type": "address"
        }
      ],
      "stateMutability": "view",
      "type": "function"
    },
    {
      "inputs": [],
      "name": "listingFee",
      "outputs": [
        {
          "internalType": "uint256",
          "name": "",
          "type": "uint256"
        }
      ],
      "stateMutability": "view",
      "type": "function"
    },
    {
      "inputs": [],
      "name": "marketowner",
      "outputs": [
        {
          "internalType": "address payable",
          "name": "",
          "type": "address"
        }
      ],
      "stateMutability": "view",
      "type": "function"
    },
    {
      "inputs": [
        {
          "internalType": "address",
          "name": "newImplementation",
          "type": "address"
        }
      ],
      "name": "upgrade",
      "outputs": [],
      "stateMutability": "nonpayable",
      "type": "function"
    }
  ],
  "bytecode": "0x60806040526658d15e1762800060065534801561001b57600080fd5b50600160008190555033600560006101000a81548173ffffffffffffffffffffffffffffffffffffffff021916908373ffffffffffffffffffffffffffffffffffffffff16021790555033600260006101000a81548173ffffffffffffffffffffffffffffffffffffffff021916908373ffffffffffffffffffffffffffffffffffffffff1602179055506127a9806100b56000396000f3fe6080604052600436106100ab5760003560e01c8063a9c0714511610064578063a9c0714514610233578063ab76ce161461025c578063b8fe6abe14610287578063c23b139e146102b2578063ef8da9da146102ce578063f851a440146102f9576100ac565b80630900f01014610142578063332b386b1461016b57806358eb2df5146101965780635c60da1b146101b25780635e385b92146101dd5780636a1b7ecc14610208576100ac565b5b600080600160009054906101000a900473ffffffffffffffffffffffffffffffffffffffff1673ffffffffffffffffffffffffffffffffffffffff166000366040516100f9929190612191565b600060405180830381855af49150503d8060008114610134576040519150601f19603f3d011682016040523d82523d6000602084013e610139565b606091505b50915091505050005b34801561014e57600080fd5b5061016960048036038101906101649190611db4565b610324565b005b34801561017757600080fd5b506101806103c2565b60405161018d91906122e6565b60405180910390f35b6101b060048036038101906101ab9190611e42565b6103d3565b005b3480156101be57600080fd5b506101c761082a565b6040516101d491906121aa565b60405180910390f35b3480156101e957600080fd5b506101f2610850565b6040516101ff91906121c5565b60405180910390f35b34801561021457600080fd5b5061021d610876565b60405161022a9190612408565b60405180910390f35b34801561023f57600080fd5b5061025a60048036038101906102559190611e91565b61087c565b005b34801561026857600080fd5b50610271610d42565b60405161027e91906122e6565b60405180910390f35b34801561029357600080fd5b5061029c610d53565b6040516102a99190612408565b60405180910390f35b6102cc60048036038101906102c79190611e06565b610d5d565b005b3480156102da57600080fd5b506102e361119f565b6040516102f091906122e6565b60405180910390f35b34801561030557600080fd5b5061030e6111b0565b60405161031b91906121aa565b60405180910390f35b600260009054906101000a900473ffffffffffffffffffffffffffffffffffffffff1673ffffffffffffffffffffffffffffffffffffffff163373ffffffffffffffffffffffffffffffffffffffff161461037e57600080fd5b80600160006101000a81548173ffffffffffffffffffffffffffffffffffffffff021916908373ffffffffffffffffffffffffffffffffffffffff16021790555050565b60606103ce60006111d6565b905090565b60026000541415610419576040517f08c379a0000000000000000000000000000000000000000000000000000000008152600401610410906123c8565b60405180910390fd5b600260008190555060008111610464576040517f08c379a000000000000000000000000000000000000000000000000000000000815260040161045b906123e8565b60405180910390fd5b60065434146104a8576040517f08c379a000000000000000000000000000000000000000000000000000000000815260040161049f90612348565b60405180910390fd5b6104b26003611883565b60006104be6003611899565b90506040518060e001604052808281526020018573ffffffffffffffffffffffffffffffffffffffff1681526020018481526020013373ffffffffffffffffffffffffffffffffffffffff168152602001600073ffffffffffffffffffffffffffffffffffffffff1681526020018381526020016000600281111561056c577f4e487b7100000000000000000000000000000000000000000000000000000000600052602160045260246000fd5b815250600760008381526020019081526020016000206000820151816000015560208201518160010160006101000a81548173ffffffffffffffffffffffffffffffffffffffff021916908373ffffffffffffffffffffffffffffffffffffffff1602179055506040820151816002015560608201518160030160006101000a81548173ffffffffffffffffffffffffffffffffffffffff021916908373ffffffffffffffffffffffffffffffffffffffff16021790555060808201518160040160006101000a81548173ffffffffffffffffffffffffffffffffffffffff021916908373ffffffffffffffffffffffffffffffffffffffff16021790555060a0820151816005015560c08201518160060160006101000a81548160ff021916908360028111156106c6577f4e487b7100000000000000000000000000000000000000000000000000000000600052602160045260246000fd5b02179055509050503073ffffffffffffffffffffffffffffffffffffffff168473ffffffffffffffffffffffffffffffffffffffff1663081812fc856040518263ffffffff1660e01b815260040161071e9190612408565b60206040518083038186803b15801561073657600080fd5b505afa15801561074a573d6000803e3d6000fd5b505050506040513d601f19601f8201168201806040525081019061076e9190611ddd565b73ffffffffffffffffffffffffffffffffffffffff16146107c4576040517f08c379a00000000000000000000000000000000000000000000000000000000081526004016107bb906123a8565b60405180910390fd5b828473ffffffffffffffffffffffffffffffffffffffff16827fb0a8dcfc08f1150d20def3c46440be585f61cce1bdbb0fdf16bc597f471c6e7033600087600060405161081494939291906122a1565b60405180910390a4506001600081905550505050565b600160009054906101000a900473ffffffffffffffffffffffffffffffffffffffff1681565b600560009054906101000a900473ffffffffffffffffffffffffffffffffffffffff1681565b60065481565b600260005414156108c2576040517f08c379a00000000000000000000000000000000000000000000000000000000081526004016108b9906123c8565b60405180910390fd5b60026000819055506108d46003611899565b811115610916576040517f08c379a000000000000000000000000000000000000000000000000000000000815260040161090d90612368565b60405180910390fd5b60006002811115610950577f4e487b7100000000000000000000000000000000000000000000000000000000600052602160045260246000fd5b6007600083815260200190815260200160002060060160009054906101000a900460ff1660028111156109ac577f4e487b7100000000000000000000000000000000000000000000000000000000600052602160045260246000fd5b146109ec576040517f08c379a00000000000000000000000000000000000000000000000000000000081526004016109e390612388565b60405180910390fd5b60006007600083815260200190815260200160002090503373ffffffffffffffffffffffffffffffffffffffff168160010160009054906101000a900473ffffffffffffffffffffffffffffffffffffffff1673ffffffffffffffffffffffffffffffffffffffff16636352211e83600201546040518263ffffffff1660e01b8152600401610a7b9190612408565b60206040518083038186803b158015610a9357600080fd5b505afa158015610aa7573d6000803e3d6000fd5b505050506040513d601f19601f82011682018060405250810190610acb9190611ddd565b73ffffffffffffffffffffffffffffffffffffffff1614610b21576040517f08c379a0000000000000000000000000000000000000000000000000000000008152600401610b1890612308565b60405180910390fd5b3073ffffffffffffffffffffffffffffffffffffffff168160010160009054906101000a900473ffffffffffffffffffffffffffffffffffffffff1673ffffffffffffffffffffffffffffffffffffffff1663081812fc83600201546040518263ffffffff1660e01b8152600401610b999190612408565b60206040518083038186803b158015610bb157600080fd5b505afa158015610bc5573d6000803e3d6000fd5b505050506040513d601f19601f82011682018060405250810190610be99190611ddd565b73ffffffffffffffffffffffffffffffffffffffff1614610c3f576040517f08c379a0000000000000000000000000000000000000000000000000000000008152600401610c36906123a8565b60405180910390fd5b60028160060160006101000a81548160ff02191690836002811115610c8d577f4e487b7100000000000000000000000000000000000000000000000000000000600052602160045260246000fd5b021790555080600201548160010160009054906101000a900473ffffffffffffffffffffffffffffffffffffffff1673ffffffffffffffffffffffffffffffffffffffff16837f064a9702da2c4a0a9af4cabda06e4715203ed7b0b3bb67eca6d3168e1c519bff8460030160009054906101000a900473ffffffffffffffffffffffffffffffffffffffff166000806002604051610d2e94939291906121e0565b60405180910390a450600160008190555050565b6060610d4e60016111d6565b905090565b6000600654905090565b60026000541415610da3576040517f08c379a0000000000000000000000000000000000000000000000000000000008152600401610d9a906123c8565b60405180910390fd5b60026000819055506000600760008381526020019081526020016000209050600081600501549050600082600201549050813414610e16576040517f08c379a0000000000000000000000000000000000000000000000000000000008152600401610e0d90612328565b60405180910390fd5b3073ffffffffffffffffffffffffffffffffffffffff168573ffffffffffffffffffffffffffffffffffffffff1663081812fc836040518263ffffffff1660e01b8152600401610e669190612408565b60206040518083038186803b158015610e7e57600080fd5b505afa158015610e92573d6000803e3d6000fd5b505050506040513d601f19601f82011682018060405250810190610eb69190611ddd565b73ffffffffffffffffffffffffffffffffffffffff1614610f0c576040517f08c379a0000000000000000000000000000000000000000000000000000000008152600401610f03906123a8565b60405180910390fd5b338360040160006101000a81548173ffffffffffffffffffffffffffffffffffffffff021916908373ffffffffffffffffffffffffffffffffffffffff16021790555060018360060160006101000a81548160ff02191690836002811115610f9d577f4e487b7100000000000000000000000000000000000000000000000000000000600052602160045260246000fd5b0217905550610fac6004611883565b8473ffffffffffffffffffffffffffffffffffffffff166323b872dd8460030160009054906101000a900473ffffffffffffffffffffffffffffffffffffffff1633846040518463ffffffff1660e01b815260040161100d93929190612225565b600060405180830381600087803b15801561102757600080fd5b505af115801561103b573d6000803e3d6000fd5b50505050600560009054906101000a900473ffffffffffffffffffffffffffffffffffffffff1673ffffffffffffffffffffffffffffffffffffffff166108fc6006549081150290604051600060405180830381858888f193505050501580156110a9573d6000803e3d6000fd5b508260030160009054906101000a900473ffffffffffffffffffffffffffffffffffffffff1673ffffffffffffffffffffffffffffffffffffffff166108fc349081150290604051600060405180830381858888f19350505050158015611114573d6000803e3d6000fd5b50808573ffffffffffffffffffffffffffffffffffffffff16857f064a9702da2c4a0a9af4cabda06e4715203ed7b0b3bb67eca6d3168e1c519bff8660030160009054906101000a900473ffffffffffffffffffffffffffffffffffffffff1633876001604051611188949392919061225c565b60405180910390a450505060016000819055505050565b60606111ab60026111d6565b905090565b600260009054906101000a900473ffffffffffffffffffffffffffffffffffffffff1681565b606060006111e46003611899565b9050600080600190505b8281116113ea576113c3600760008381526020019081526020016000206040518060e0016040529081600082015481526020016001820160009054906101000a900473ffffffffffffffffffffffffffffffffffffffff1673ffffffffffffffffffffffffffffffffffffffff1673ffffffffffffffffffffffffffffffffffffffff168152602001600282015481526020016003820160009054906101000a900473ffffffffffffffffffffffffffffffffffffffff1673ffffffffffffffffffffffffffffffffffffffff1673ffffffffffffffffffffffffffffffffffffffff1681526020016004820160009054906101000a900473ffffffffffffffffffffffffffffffffffffffff1673ffffffffffffffffffffffffffffffffffffffff1673ffffffffffffffffffffffffffffffffffffffff168152602001600582015481526020016006820160009054906101000a900460ff166002811115611381577f4e487b7100000000000000000000000000000000000000000000000000000000600052602160045260246000fd5b60028111156113b9577f4e487b7100000000000000000000000000000000000000000000000000000000600052602160045260246000fd5b81525050866118a7565b156113d75781806113d390612542565b9250505b80806113e290612542565b9150506111ee565b506000808267ffffffffffffffff81111561142e577f4e487b7100000000000000000000000000000000000000000000000000000000600052604160045260246000fd5b60405190808252806020026020018201604052801561146757816020015b611454611cbe565b81526020019060019003908161144c5790505b5090506000600190505b84811161187657611646600760008381526020019081526020016000206040518060e0016040529081600082015481526020016001820160009054906101000a900473ffffffffffffffffffffffffffffffffffffffff1673ffffffffffffffffffffffffffffffffffffffff1673ffffffffffffffffffffffffffffffffffffffff168152602001600282015481526020016003820160009054906101000a900473ffffffffffffffffffffffffffffffffffffffff1673ffffffffffffffffffffffffffffffffffffffff1673ffffffffffffffffffffffffffffffffffffffff1681526020016004820160009054906101000a900473ffffffffffffffffffffffffffffffffffffffff1673ffffffffffffffffffffffffffffffffffffffff1673ffffffffffffffffffffffffffffffffffffffff168152602001600582015481526020016006820160009054906101000a900460ff166002811115611604577f4e487b7100000000000000000000000000000000000000000000000000000000600052602160045260246000fd5b600281111561163c577f4e487b7100000000000000000000000000000000000000000000000000000000600052602160045260246000fd5b81525050886118a7565b1561186357600760008281526020019081526020016000206040518060e0016040529081600082015481526020016001820160009054906101000a900473ffffffffffffffffffffffffffffffffffffffff1673ffffffffffffffffffffffffffffffffffffffff1673ffffffffffffffffffffffffffffffffffffffff168152602001600282015481526020016003820160009054906101000a900473ffffffffffffffffffffffffffffffffffffffff1673ffffffffffffffffffffffffffffffffffffffff1673ffffffffffffffffffffffffffffffffffffffff1681526020016004820160009054906101000a900473ffffffffffffffffffffffffffffffffffffffff1673ffffffffffffffffffffffffffffffffffffffff1673ffffffffffffffffffffffffffffffffffffffff168152602001600582015481526020016006820160009054906101000a900460ff1660028111156117d4577f4e487b7100000000000000000000000000000000000000000000000000000000600052602160045260246000fd5b600281111561180c577f4e487b7100000000000000000000000000000000000000000000000000000000600052602160045260246000fd5b81525050828481518110611849577f4e487b7100000000000000000000000000000000000000000000000000000000600052603260045260246000fd5b6020026020010181905250828061185f90612542565b9350505b808061186e90612542565b915050611471565b5080945050505050919050565b6001816000016000828254019250508190555050565b600081600001549050919050565b60006002808111156118e2577f4e487b7100000000000000000000000000000000000000000000000000000000600052602160045260246000fd5b82600281111561191b577f4e487b7100000000000000000000000000000000000000000000000000000000600052602160045260246000fd5b14156119e9573373ffffffffffffffffffffffffffffffffffffffff16836060015173ffffffffffffffffffffffffffffffffffffffff161480156119d45750600280811115611994577f4e487b7100000000000000000000000000000000000000000000000000000000600052602160045260246000fd5b8360c0015160028111156119d1577f4e487b7100000000000000000000000000000000000000000000000000000000600052602160045260246000fd5b14155b6119df5760006119e2565b60015b9050611cb8565b60016002811115611a23577f4e487b7100000000000000000000000000000000000000000000000000000000600052602160045260246000fd5b826002811115611a5c577f4e487b7100000000000000000000000000000000000000000000000000000000600052602160045260246000fd5b1415611aaa573373ffffffffffffffffffffffffffffffffffffffff16836080015173ffffffffffffffffffffffffffffffffffffffff1614611aa0576000611aa3565b60015b9050611cb8565b60006002811115611ae4577f4e487b7100000000000000000000000000000000000000000000000000000000600052602160045260246000fd5b826002811115611b1d577f4e487b7100000000000000000000000000000000000000000000000000000000600052602160045260246000fd5b1415611cb357600073ffffffffffffffffffffffffffffffffffffffff16836080015173ffffffffffffffffffffffffffffffffffffffff16148015611bd7575060006002811115611b98577f4e487b7100000000000000000000000000000000000000000000000000000000600052602160045260246000fd5b8360c001516002811115611bd5577f4e487b7100000000000000000000000000000000000000000000000000000000600052602160045260246000fd5b145b8015611c9e57503073ffffffffffffffffffffffffffffffffffffffff16836020015173ffffffffffffffffffffffffffffffffffffffff1663081812fc85604001516040518263ffffffff1660e01b8152600401611c369190612408565b60206040518083038186803b158015611c4e57600080fd5b505afa158015611c62573d6000803e3d6000fd5b505050506040513d601f19601f82011682018060405250810190611c869190611ddd565b73ffffffffffffffffffffffffffffffffffffffff16145b611ca9576000611cac565b60015b9050611cb8565b600090505b92915050565b6040518060e0016040528060008152602001600073ffffffffffffffffffffffffffffffffffffffff16815260200160008152602001600073ffffffffffffffffffffffffffffffffffffffff168152602001600073ffffffffffffffffffffffffffffffffffffffff1681526020016000815260200160006002811115611d6f577f4e487b7100000000000000000000000000000000000000000000000000000000600052602160045260246000fd5b81525090565b600081359050611d8481612745565b92915050565b600081519050611d9981612745565b92915050565b600081359050611dae8161275c565b92915050565b600060208284031215611dc657600080fd5b6000611dd484828501611d75565b91505092915050565b600060208284031215611def57600080fd5b6000611dfd84828501611d8a565b91505092915050565b60008060408385031215611e1957600080fd5b6000611e2785828601611d75565b9250506020611e3885828601611d9f565b9150509250929050565b600080600060608486031215611e5757600080fd5b6000611e6586828701611d75565b9350506020611e7686828701611d9f565b9250506040611e8786828701611d9f565b9150509250925092565b600060208284031215611ea357600080fd5b6000611eb184828501611d9f565b91505092915050565b6000611ec683836120e5565b60e08301905092915050565b611edb816124d9565b82525050565b611eea8161248a565b82525050565b611ef98161248a565b82525050565b611f0881612478565b82525050565b611f1781612478565b82525050565b6000611f2882612433565b611f32818561244b565b9350611f3d83612423565b8060005b83811015611f6e578151611f558882611eba565b9750611f608361243e565b925050600181019050611f41565b5085935050505092915050565b6000611f87838561245c565b9350611f94838584612533565b82840190509392505050565b611fa9816124eb565b82525050565b611fb8816124eb565b82525050565b611fc7816124fd565b82525050565b6000611fda601183612467565b9150611fe5826125e9565b602082019050919050565b6000611ffd601e83612467565b915061200882612612565b602082019050919050565b6000612020602083612467565b915061202b8261263b565b602082019050919050565b6000612043601583612467565b915061204e82612664565b602082019050919050565b6000612066601683612467565b91506120718261268d565b602082019050919050565b6000612089601e83612467565b9150612094826126b6565b602082019050919050565b60006120ac601f83612467565b91506120b7826126df565b602082019050919050565b60006120cf601c83612467565b91506120da82612708565b602082019050919050565b60e0820160008201516120fb6000850182612173565b50602082015161210e6020850182611eff565b5060408201516121216040850182612173565b5060608201516121346060850182611ee1565b5060808201516121476080850182611ee1565b5060a082015161215a60a0850182612173565b5060c082015161216d60c0850182611fa0565b50505050565b61217c816124cf565b82525050565b61218b816124cf565b82525050565b600061219e828486611f7b565b91508190509392505050565b60006020820190506121bf6000830184611f0e565b92915050565b60006020820190506121da6000830184611ef0565b92915050565b60006080820190506121f56000830187611ed2565b6122026020830186611f0e565b61220f6040830185611fbe565b61221c6060830184611faf565b95945050505050565b600060608201905061223a6000830186611ed2565b6122476020830185611f0e565b6122546040830184612182565b949350505050565b60006080820190506122716000830187611ed2565b61227e6020830186611f0e565b61228b6040830185612182565b6122986060830184611faf565b95945050505050565b60006080820190506122b66000830187611f0e565b6122c36020830186611f0e565b6122d06040830185612182565b6122dd6060830184611faf565b95945050505050565b600060208201905081810360008301526123008184611f1d565b905092915050565b6000602082019050818103600083015261232181611fcd565b9050919050565b6000602082019050818103600083015261234181611ff0565b9050919050565b6000602082019050818103600083015261236181612013565b9050919050565b6000602082019050818103600083015261238181612036565b9050919050565b600060208201905081810360008301526123a181612059565b9050919050565b600060208201905081810360008301526123c18161207c565b9050919050565b600060208201905081810360008301526123e18161209f565b9050919050565b60006020820190508181036000830152612401816120c2565b9050919050565b600060208201905061241d6000830184612182565b92915050565b6000819050602082019050919050565b600081519050919050565b6000602082019050919050565b600082825260208201905092915050565b600081905092915050565b600082825260208201905092915050565b6000612483826124af565b9050919050565b6000612495826124af565b9050919050565b60008190506124aa82612731565b919050565b600073ffffffffffffffffffffffffffffffffffffffff82169050919050565b6000819050919050565b60006124e48261250f565b9050919050565b60006124f68261249c565b9050919050565b6000612508826124cf565b9050919050565b600061251a82612521565b9050919050565b600061252c826124af565b9050919050565b82818337600083830152505050565b600061254d826124cf565b91507fffffffffffffffffffffffffffffffffffffffffffffffffffffffffffffffff8214156125805761257f61258b565b5b600182019050919050565b7f4e487b7100000000000000000000000000000000000000000000000000000000600052601160045260246000fd5b7f4e487b7100000000000000000000000000000000000000000000000000000000600052602160045260246000fd5b7f6d75737420626520746865206f776e6572000000000000000000000000000000600082015250565b7f506c65617365207375626d6974207468652061736b696e672070726963650000600082015250565b7f466565206d75737420626520657175616c20746f206c697374696e6720666565600082015250565b7f6964206d757374203c3d206974656d20636f756e740000000000000000000000600082015250565b7f6974656d206d757374206265206f6e206d61726b657400000000000000000000600082015250565b7f4e4654206d75737420626520617070726f76656420746f206d61726b65740000600082015250565b7f5265656e7472616e637947756172643a207265656e7472616e742063616c6c00600082015250565b7f5072696365206d757374206265206174206c6561737420312077656900000000600082015250565b60038110612742576127416125ba565b5b50565b61274e81612478565b811461275957600080fd5b50565b612765816124cf565b811461277057600080fd5b5056fea264697066735822122018c25d9f3ccc7646ca3fac7ed6e7756357527da9d690200f8f6f73a93fa8a32664736f6c63430008040033",
  "linkReferences": {},
  "deployedLinkReferences": {}
}