{
    "_format": "hh-sol-artifact-1",
    "contractName": "NFTMarketplaceUpgrade",
    "sourceName": "contracts/NFTMarketplaceUpgrade.sol",
    "abi": [
        {
            "inputs": [],
            "stateMutability": "nonpayable",
            "type": "constructor"
        },
        {
            "anonymous": false,
            "inputs": [
                {
                    "indexed": true,
                    "internalType": "uint256",
                    "name": "id",
                    "type": "uint256"
                },
                {
                    "indexed": true,
                    "internalType": "address",
                    "name": "nftContract",
                    "type": "address"
                },
                {
                    "indexed": true,
                    "internalType": "uint256",
                    "name": "tokenId",
                    "type": "uint256"
                },
                {
                    "indexed": false,
                    "internalType": "address",
                    "name": "seller",
                    "type": "address"
                },
                {
                    "indexed": false,
                    "internalType": "address",
                    "name": "buyer",
                    "type": "address"
                },
                {
                    "indexed": false,
                    "internalType": "uint256",
                    "name": "price",
                    "type": "uint256"
                },
                {
                    "indexed": false,
                    "internalType": "enum NFTMarketplaceUpgrade.State",
                    "name": "state",
                    "type": "uint8"
                }
            ],
            "name": "MarketItemCreated",
            "type": "event"
        },
        {
            "anonymous": false,
            "inputs": [
                {
                    "indexed": true,
                    "internalType": "uint256",
                    "name": "id",
                    "type": "uint256"
                },
                {
                    "indexed": true,
                    "internalType": "address",
                    "name": "nftContract",
                    "type": "address"
                },
                {
                    "indexed": true,
                    "internalType": "uint256",
                    "name": "tokenId",
                    "type": "uint256"
                },
                {
                    "indexed": false,
                    "internalType": "address",
                    "name": "seller",
                    "type": "address"
                },
                {
                    "indexed": false,
                    "internalType": "address",
                    "name": "buyer",
                    "type": "address"
                },
                {
                    "indexed": false,
                    "internalType": "uint256",
                    "name": "price",
                    "type": "uint256"
                },
                {
                    "indexed": false,
                    "internalType": "enum NFTMarketplaceUpgrade.State",
                    "name": "state",
                    "type": "uint8"
                }
            ],
            "name": "MarketItemSold",
            "type": "event"
        },
        {
            "stateMutability": "payable",
            "type": "fallback"
        },
        {
            "inputs": [],
            "name": "admin",
            "outputs": [
                {
                    "internalType": "address",
                    "name": "",
                    "type": "address"
                }
            ],
            "stateMutability": "view",
            "type": "function"
        },
        {
            "inputs": [
                {
                    "internalType": "address",
                    "name": "nftContract",
                    "type": "address"
                },
                {
                    "internalType": "uint256",
                    "name": "tokenId",
                    "type": "uint256"
                },
                {
                    "internalType": "uint256",
                    "name": "price",
                    "type": "uint256"
                }
            ],
            "name": "createMarketItem",
            "outputs": [],
            "stateMutability": "payable",
            "type": "function"
        },
        {
            "inputs": [
                {
                    "internalType": "address",
                    "name": "nftContract",
                    "type": "address"
                },
                {
                    "internalType": "uint256",
                    "name": "id",
                    "type": "uint256"
                }
            ],
            "name": "createMarketSale",
            "outputs": [],
            "stateMutability": "payable",
            "type": "function"
        },
        {
            "inputs": [
                {
                    "internalType": "uint256",
                    "name": "itemId",
                    "type": "uint256"
                }
            ],
            "name": "deleteMarketItem",
            "outputs": [],
            "stateMutability": "nonpayable",
            "type": "function"
        },
        {
            "inputs": [],
            "name": "fetchActiveItems",
            "outputs": [
                {
                    "components": [
                        {
                            "internalType": "uint256",
                            "name": "id",
                            "type": "uint256"
                        },
                        {
                            "internalType": "address",
                            "name": "nftContract",
                            "type": "address"
                        },
                        {
                            "internalType": "uint256",
                            "name": "tokenId",
                            "type": "uint256"
                        },
                        {
                            "internalType": "address payable",
                            "name": "seller",
                            "type": "address"
                        },
                        {
                            "internalType": "address payable",
                            "name": "buyer",
                            "type": "address"
                        },
                        {
                            "internalType": "uint256",
                            "name": "price",
                            "type": "uint256"
                        },
                        {
                            "internalType": "enum NFTMarketplaceUpgrade.State",
                            "name": "state",
                            "type": "uint8"
                        }
                    ],
                    "internalType": "struct NFTMarketplaceUpgrade.MarketItem[]",
                    "name": "",
                    "type": "tuple[]"
                }
            ],
            "stateMutability": "view",
            "type": "function"
        },
        {
            "inputs": [],
            "name": "fetchMyCreatedItems",
            "outputs": [
                {
                    "components": [
                        {
                            "internalType": "uint256",
                            "name": "id",
                            "type": "uint256"
                        },
                        {
                            "internalType": "address",
                            "name": "nftContract",
                            "type": "address"
                        },
                        {
                            "internalType": "uint256",
                            "name": "tokenId",
                            "type": "uint256"
                        },
                        {
                            "internalType": "address payable",
                            "name": "seller",
                            "type": "address"
                        },
                        {
                            "internalType": "address payable",
                            "name": "buyer",
                            "type": "address"
                        },
                        {
                            "internalType": "uint256",
                            "name": "price",
                            "type": "uint256"
                        },
                        {
                            "internalType": "enum NFTMarketplaceUpgrade.State",
                            "name": "state",
                            "type": "uint8"
                        }
                    ],
                    "internalType": "struct NFTMarketplaceUpgrade.MarketItem[]",
                    "name": "",
                    "type": "tuple[]"
                }
            ],
            "stateMutability": "view",
            "type": "function"
        },
        {
            "inputs": [],
            "name": "fetchMyPurchasedItems",
            "outputs": [
                {
                    "components": [
                        {
                            "internalType": "uint256",
                            "name": "id",
                            "type": "uint256"
                        },
                        {
                            "internalType": "address",
                            "name": "nftContract",
                            "type": "address"
                        },
                        {
                            "internalType": "uint256",
                            "name": "tokenId",
                            "type": "uint256"
                        },
                        {
                            "internalType": "address payable",
                            "name": "seller",
                            "type": "address"
                        },
                        {
                            "internalType": "address payable",
                            "name": "buyer",
                            "type": "address"
                        },
                        {
                            "internalType": "uint256",
                            "name": "price",
                            "type": "uint256"
                        },
                        {
                            "internalType": "enum NFTMarketplaceUpgrade.State",
                            "name": "state",
                            "type": "uint8"
                        }
                    ],
                    "internalType": "struct NFTMarketplaceUpgrade.MarketItem[]",
                    "name": "",
                    "type": "tuple[]"
                }
            ],
            "stateMutability": "view",
            "type": "function"
        },
        {
            "inputs": [],
            "name": "getListingFee",
            "outputs": [
                {
                    "internalType": "uint256",
                    "name": "",
                    "type": "uint256"
                }
            ],
            "stateMutability": "view",
            "type": "function"
        },
        {
            "inputs": [],
            "name": "implementation",
            "outputs": [
                {
                    "internalType": "address",
                    "name": "",
                    "type": "address"
                }
            ],
            "stateMutability": "view",
            "type": "function"
        },
        {
            "inputs": [],
            "name": "listingFee",
            "outputs": [
                {
                    "internalType": "uint256",
                    "name": "",
                    "type": "uint256"
                }
            ],
            "stateMutability": "view",
            "type": "function"
        },
        {
            "inputs": [],
            "name": "marketowner",
            "outputs": [
                {
                    "internalType": "address payable",
                    "name": "",
                    "type": "address"
                }
            ],
            "stateMutability": "view",
            "type": "function"
        },
        {
            "inputs": [
                {
                    "internalType": "address",
                    "name": "newImplementation",
                    "type": "address"
                }
            ],
            "name": "upgrade",
            "outputs": [],
            "stateMutability": "nonpayable",
            "type": "function"
        },
        {
            "inputs": [],
            "name": "withdraw",
            "outputs": [],
            "stateMutability": "nonpayable",
            "type": "function"
        }
    ],
    "bytecode": "0x60806040526658d15e1762800060065534801561001b57600080fd5b50600160008190555033600560006101000a81548173ffffffffffffffffffffffffffffffffffffffff021916908373ffffffffffffffffffffffffffffffffffffffff16021790555033600260006101000a81548173ffffffffffffffffffffffffffffffffffffffff021916908373ffffffffffffffffffffffffffffffffffffffff16021790555061295f806100b56000396000f3fe6080604052600436106100c65760003560e01c80636a1b7ecc1161007f578063b8fe6abe11610059578063b8fe6abe146102b9578063c23b139e146102e4578063ef8da9da14610300578063f851a4401461032b576100c7565b80636a1b7ecc1461023a578063a9c0714514610265578063ab76ce161461028e576100c7565b80630900f0101461015d578063332b386b146101865780633ccfd60b146101b157806358eb2df5146101c85780635c60da1b146101e45780635e385b921461020f576100c7565b5b600080600160009054906101000a900473ffffffffffffffffffffffffffffffffffffffff1673ffffffffffffffffffffffffffffffffffffffff166000366040516101149291906122e6565b600060405180830381855af49150503d806000811461014f576040519150601f19603f3d011682016040523d82523d6000602084013e610154565b606091505b50915091505050005b34801561016957600080fd5b50610184600480360381019061017f9190611ec3565b610356565b005b34801561019257600080fd5b5061019b6103f4565b6040516101a89190612450565b60405180910390f35b3480156101bd57600080fd5b506101c6610405565b005b6101e260048036038101906101dd9190611f51565b6104e2565b005b3480156101f057600080fd5b506101f9610939565b6040516102069190612314565b60405180910390f35b34801561021b57600080fd5b5061022461095f565b604051610231919061232f565b60405180910390f35b34801561024657600080fd5b5061024f610985565b60405161025c9190612592565b60405180910390f35b34801561027157600080fd5b5061028c60048036038101906102879190611fa0565b61098b565b005b34801561029a57600080fd5b506102a3610e51565b6040516102b09190612450565b60405180910390f35b3480156102c557600080fd5b506102ce610e62565b6040516102db9190612592565b60405180910390f35b6102fe60048036038101906102f99190611f15565b610e6c565b005b34801561030c57600080fd5b506103156112ae565b6040516103229190612450565b60405180910390f35b34801561033757600080fd5b506103406112bf565b60405161034d9190612314565b60405180910390f35b600260009054906101000a900473ffffffffffffffffffffffffffffffffffffffff1673ffffffffffffffffffffffffffffffffffffffff163373ffffffffffffffffffffffffffffffffffffffff16146103b057600080fd5b80600160006101000a81548173ffffffffffffffffffffffffffffffffffffffff021916908373ffffffffffffffffffffffffffffffffffffffff16021790555050565b606061040060006112e5565b905090565b6000600260009054906101000a900473ffffffffffffffffffffffffffffffffffffffff169050600047905060008273ffffffffffffffffffffffffffffffffffffffff1682604051610457906122ff565b60006040518083038185875af1925050503d8060008114610494576040519150601f19603f3d011682016040523d82523d6000602084013e610499565b606091505b50509050806104dd576040517f08c379a00000000000000000000000000000000000000000000000000000000081526004016104d4906124d2565b60405180910390fd5b505050565b60026000541415610528576040517f08c379a000000000000000000000000000000000000000000000000000000000815260040161051f90612552565b60405180910390fd5b600260008190555060008111610573576040517f08c379a000000000000000000000000000000000000000000000000000000000815260040161056a90612572565b60405180910390fd5b60065434146105b7576040517f08c379a00000000000000000000000000000000000000000000000000000000081526004016105ae906124b2565b60405180910390fd5b6105c16003611992565b60006105cd60036119a8565b90506040518060e001604052808281526020018573ffffffffffffffffffffffffffffffffffffffff1681526020018481526020013373ffffffffffffffffffffffffffffffffffffffff168152602001600073ffffffffffffffffffffffffffffffffffffffff1681526020018381526020016000600281111561067b577f4e487b7100000000000000000000000000000000000000000000000000000000600052602160045260246000fd5b815250600760008381526020019081526020016000206000820151816000015560208201518160010160006101000a81548173ffffffffffffffffffffffffffffffffffffffff021916908373ffffffffffffffffffffffffffffffffffffffff1602179055506040820151816002015560608201518160030160006101000a81548173ffffffffffffffffffffffffffffffffffffffff021916908373ffffffffffffffffffffffffffffffffffffffff16021790555060808201518160040160006101000a81548173ffffffffffffffffffffffffffffffffffffffff021916908373ffffffffffffffffffffffffffffffffffffffff16021790555060a0820151816005015560c08201518160060160006101000a81548160ff021916908360028111156107d5577f4e487b7100000000000000000000000000000000000000000000000000000000600052602160045260246000fd5b02179055509050503073ffffffffffffffffffffffffffffffffffffffff168473ffffffffffffffffffffffffffffffffffffffff1663081812fc856040518263ffffffff1660e01b815260040161082d9190612592565b60206040518083038186803b15801561084557600080fd5b505afa158015610859573d6000803e3d6000fd5b505050506040513d601f19601f8201168201806040525081019061087d9190611eec565b73ffffffffffffffffffffffffffffffffffffffff16146108d3576040517f08c379a00000000000000000000000000000000000000000000000000000000081526004016108ca90612532565b60405180910390fd5b828473ffffffffffffffffffffffffffffffffffffffff16827fb0a8dcfc08f1150d20def3c46440be585f61cce1bdbb0fdf16bc597f471c6e70336000876000604051610923949392919061240b565b60405180910390a4506001600081905550505050565b600160009054906101000a900473ffffffffffffffffffffffffffffffffffffffff1681565b600560009054906101000a900473ffffffffffffffffffffffffffffffffffffffff1681565b60065481565b600260005414156109d1576040517f08c379a00000000000000000000000000000000000000000000000000000000081526004016109c890612552565b60405180910390fd5b60026000819055506109e360036119a8565b811115610a25576040517f08c379a0000000000000000000000000000000000000000000000000000000008152600401610a1c906124f2565b60405180910390fd5b60006002811115610a5f577f4e487b7100000000000000000000000000000000000000000000000000000000600052602160045260246000fd5b6007600083815260200190815260200160002060060160009054906101000a900460ff166002811115610abb577f4e487b7100000000000000000000000000000000000000000000000000000000600052602160045260246000fd5b14610afb576040517f08c379a0000000000000000000000000000000000000000000000000000000008152600401610af290612512565b60405180910390fd5b60006007600083815260200190815260200160002090503373ffffffffffffffffffffffffffffffffffffffff168160010160009054906101000a900473ffffffffffffffffffffffffffffffffffffffff1673ffffffffffffffffffffffffffffffffffffffff16636352211e83600201546040518263ffffffff1660e01b8152600401610b8a9190612592565b60206040518083038186803b158015610ba257600080fd5b505afa158015610bb6573d6000803e3d6000fd5b505050506040513d601f19601f82011682018060405250810190610bda9190611eec565b73ffffffffffffffffffffffffffffffffffffffff1614610c30576040517f08c379a0000000000000000000000000000000000000000000000000000000008152600401610c2790612472565b60405180910390fd5b3073ffffffffffffffffffffffffffffffffffffffff168160010160009054906101000a900473ffffffffffffffffffffffffffffffffffffffff1673ffffffffffffffffffffffffffffffffffffffff1663081812fc83600201546040518263ffffffff1660e01b8152600401610ca89190612592565b60206040518083038186803b158015610cc057600080fd5b505afa158015610cd4573d6000803e3d6000fd5b505050506040513d601f19601f82011682018060405250810190610cf89190611eec565b73ffffffffffffffffffffffffffffffffffffffff1614610d4e576040517f08c379a0000000000000000000000000000000000000000000000000000000008152600401610d4590612532565b60405180910390fd5b60028160060160006101000a81548160ff02191690836002811115610d9c577f4e487b7100000000000000000000000000000000000000000000000000000000600052602160045260246000fd5b021790555080600201548160010160009054906101000a900473ffffffffffffffffffffffffffffffffffffffff1673ffffffffffffffffffffffffffffffffffffffff16837f064a9702da2c4a0a9af4cabda06e4715203ed7b0b3bb67eca6d3168e1c519bff8460030160009054906101000a900473ffffffffffffffffffffffffffffffffffffffff166000806002604051610e3d949392919061234a565b60405180910390a450600160008190555050565b6060610e5d60016112e5565b905090565b6000600654905090565b60026000541415610eb2576040517f08c379a0000000000000000000000000000000000000000000000000000000008152600401610ea990612552565b60405180910390fd5b60026000819055506000600760008381526020019081526020016000209050600081600501549050600082600201549050813414610f25576040517f08c379a0000000000000000000000000000000000000000000000000000000008152600401610f1c90612492565b60405180910390fd5b3073ffffffffffffffffffffffffffffffffffffffff168573ffffffffffffffffffffffffffffffffffffffff1663081812fc836040518263ffffffff1660e01b8152600401610f759190612592565b60206040518083038186803b158015610f8d57600080fd5b505afa158015610fa1573d6000803e3d6000fd5b505050506040513d601f19601f82011682018060405250810190610fc59190611eec565b73ffffffffffffffffffffffffffffffffffffffff161461101b576040517f08c379a000000000000000000000000000000000000000000000000000000000815260040161101290612532565b60405180910390fd5b338360040160006101000a81548173ffffffffffffffffffffffffffffffffffffffff021916908373ffffffffffffffffffffffffffffffffffffffff16021790555060018360060160006101000a81548160ff021916908360028111156110ac577f4e487b7100000000000000000000000000000000000000000000000000000000600052602160045260246000fd5b02179055506110bb6004611992565b8473ffffffffffffffffffffffffffffffffffffffff166323b872dd8460030160009054906101000a900473ffffffffffffffffffffffffffffffffffffffff1633846040518463ffffffff1660e01b815260040161111c9392919061238f565b600060405180830381600087803b15801561113657600080fd5b505af115801561114a573d6000803e3d6000fd5b50505050600560009054906101000a900473ffffffffffffffffffffffffffffffffffffffff1673ffffffffffffffffffffffffffffffffffffffff166108fc6006549081150290604051600060405180830381858888f193505050501580156111b8573d6000803e3d6000fd5b508260030160009054906101000a900473ffffffffffffffffffffffffffffffffffffffff1673ffffffffffffffffffffffffffffffffffffffff166108fc349081150290604051600060405180830381858888f19350505050158015611223573d6000803e3d6000fd5b50808573ffffffffffffffffffffffffffffffffffffffff16857f064a9702da2c4a0a9af4cabda06e4715203ed7b0b3bb67eca6d3168e1c519bff8660030160009054906101000a900473ffffffffffffffffffffffffffffffffffffffff163387600160405161129794939291906123c6565b60405180910390a450505060016000819055505050565b60606112ba60026112e5565b905090565b600260009054906101000a900473ffffffffffffffffffffffffffffffffffffffff1681565b606060006112f360036119a8565b9050600080600190505b8281116114f9576114d2600760008381526020019081526020016000206040518060e0016040529081600082015481526020016001820160009054906101000a900473ffffffffffffffffffffffffffffffffffffffff1673ffffffffffffffffffffffffffffffffffffffff1673ffffffffffffffffffffffffffffffffffffffff168152602001600282015481526020016003820160009054906101000a900473ffffffffffffffffffffffffffffffffffffffff1673ffffffffffffffffffffffffffffffffffffffff1673ffffffffffffffffffffffffffffffffffffffff1681526020016004820160009054906101000a900473ffffffffffffffffffffffffffffffffffffffff1673ffffffffffffffffffffffffffffffffffffffff1673ffffffffffffffffffffffffffffffffffffffff168152602001600582015481526020016006820160009054906101000a900460ff166002811115611490577f4e487b7100000000000000000000000000000000000000000000000000000000600052602160045260246000fd5b60028111156114c8577f4e487b7100000000000000000000000000000000000000000000000000000000600052602160045260246000fd5b81525050866119b6565b156114e65781806114e2906126cc565b9250505b80806114f1906126cc565b9150506112fd565b506000808267ffffffffffffffff81111561153d577f4e487b7100000000000000000000000000000000000000000000000000000000600052604160045260246000fd5b60405190808252806020026020018201604052801561157657816020015b611563611dcd565b81526020019060019003908161155b5790505b5090506000600190505b84811161198557611755600760008381526020019081526020016000206040518060e0016040529081600082015481526020016001820160009054906101000a900473ffffffffffffffffffffffffffffffffffffffff1673ffffffffffffffffffffffffffffffffffffffff1673ffffffffffffffffffffffffffffffffffffffff168152602001600282015481526020016003820160009054906101000a900473ffffffffffffffffffffffffffffffffffffffff1673ffffffffffffffffffffffffffffffffffffffff1673ffffffffffffffffffffffffffffffffffffffff1681526020016004820160009054906101000a900473ffffffffffffffffffffffffffffffffffffffff1673ffffffffffffffffffffffffffffffffffffffff1673ffffffffffffffffffffffffffffffffffffffff168152602001600582015481526020016006820160009054906101000a900460ff166002811115611713577f4e487b7100000000000000000000000000000000000000000000000000000000600052602160045260246000fd5b600281111561174b577f4e487b7100000000000000000000000000000000000000000000000000000000600052602160045260246000fd5b81525050886119b6565b1561197257600760008281526020019081526020016000206040518060e0016040529081600082015481526020016001820160009054906101000a900473ffffffffffffffffffffffffffffffffffffffff1673ffffffffffffffffffffffffffffffffffffffff1673ffffffffffffffffffffffffffffffffffffffff168152602001600282015481526020016003820160009054906101000a900473ffffffffffffffffffffffffffffffffffffffff1673ffffffffffffffffffffffffffffffffffffffff1673ffffffffffffffffffffffffffffffffffffffff1681526020016004820160009054906101000a900473ffffffffffffffffffffffffffffffffffffffff1673ffffffffffffffffffffffffffffffffffffffff1673ffffffffffffffffffffffffffffffffffffffff168152602001600582015481526020016006820160009054906101000a900460ff1660028111156118e3577f4e487b7100000000000000000000000000000000000000000000000000000000600052602160045260246000fd5b600281111561191b577f4e487b7100000000000000000000000000000000000000000000000000000000600052602160045260246000fd5b81525050828481518110611958577f4e487b7100000000000000000000000000000000000000000000000000000000600052603260045260246000fd5b6020026020010181905250828061196e906126cc565b9350505b808061197d906126cc565b915050611580565b5080945050505050919050565b6001816000016000828254019250508190555050565b600081600001549050919050565b60006002808111156119f1577f4e487b7100000000000000000000000000000000000000000000000000000000600052602160045260246000fd5b826002811115611a2a577f4e487b7100000000000000000000000000000000000000000000000000000000600052602160045260246000fd5b1415611af8573373ffffffffffffffffffffffffffffffffffffffff16836060015173ffffffffffffffffffffffffffffffffffffffff16148015611ae35750600280811115611aa3577f4e487b7100000000000000000000000000000000000000000000000000000000600052602160045260246000fd5b8360c001516002811115611ae0577f4e487b7100000000000000000000000000000000000000000000000000000000600052602160045260246000fd5b14155b611aee576000611af1565b60015b9050611dc7565b60016002811115611b32577f4e487b7100000000000000000000000000000000000000000000000000000000600052602160045260246000fd5b826002811115611b6b577f4e487b7100000000000000000000000000000000000000000000000000000000600052602160045260246000fd5b1415611bb9573373ffffffffffffffffffffffffffffffffffffffff16836080015173ffffffffffffffffffffffffffffffffffffffff1614611baf576000611bb2565b60015b9050611dc7565b60006002811115611bf3577f4e487b7100000000000000000000000000000000000000000000000000000000600052602160045260246000fd5b826002811115611c2c577f4e487b7100000000000000000000000000000000000000000000000000000000600052602160045260246000fd5b1415611dc257600073ffffffffffffffffffffffffffffffffffffffff16836080015173ffffffffffffffffffffffffffffffffffffffff16148015611ce6575060006002811115611ca7577f4e487b7100000000000000000000000000000000000000000000000000000000600052602160045260246000fd5b8360c001516002811115611ce4577f4e487b7100000000000000000000000000000000000000000000000000000000600052602160045260246000fd5b145b8015611dad57503073ffffffffffffffffffffffffffffffffffffffff16836020015173ffffffffffffffffffffffffffffffffffffffff1663081812fc85604001516040518263ffffffff1660e01b8152600401611d459190612592565b60206040518083038186803b158015611d5d57600080fd5b505afa158015611d71573d6000803e3d6000fd5b505050506040513d601f19601f82011682018060405250810190611d959190611eec565b73ffffffffffffffffffffffffffffffffffffffff16145b611db8576000611dbb565b60015b9050611dc7565b600090505b92915050565b6040518060e0016040528060008152602001600073ffffffffffffffffffffffffffffffffffffffff16815260200160008152602001600073ffffffffffffffffffffffffffffffffffffffff168152602001600073ffffffffffffffffffffffffffffffffffffffff1681526020016000815260200160006002811115611e7e577f4e487b7100000000000000000000000000000000000000000000000000000000600052602160045260246000fd5b81525090565b600081359050611e93816128fb565b92915050565b600081519050611ea8816128fb565b92915050565b600081359050611ebd81612912565b92915050565b600060208284031215611ed557600080fd5b6000611ee384828501611e84565b91505092915050565b600060208284031215611efe57600080fd5b6000611f0c84828501611e99565b91505092915050565b60008060408385031215611f2857600080fd5b6000611f3685828601611e84565b9250506020611f4785828601611eae565b9150509250929050565b600080600060608486031215611f6657600080fd5b6000611f7486828701611e84565b9350506020611f8586828701611eae565b9250506040611f9686828701611eae565b9150509250925092565b600060208284031215611fb257600080fd5b6000611fc084828501611eae565b91505092915050565b6000611fd5838361223a565b60e08301905092915050565b611fea81612663565b82525050565b611ff981612614565b82525050565b61200881612614565b82525050565b61201781612602565b82525050565b61202681612602565b82525050565b6000612037826125bd565b61204181856125d5565b935061204c836125ad565b8060005b8381101561207d5781516120648882611fc9565b975061206f836125c8565b925050600181019050612050565b5085935050505092915050565b600061209683856125e6565b93506120a38385846126bd565b82840190509392505050565b6120b881612675565b82525050565b6120c781612675565b82525050565b6120d681612687565b82525050565b60006120e96011836125f1565b91506120f482612773565b602082019050919050565b600061210c601e836125f1565b91506121178261279c565b602082019050919050565b600061212f6020836125f1565b915061213a826127c5565b602082019050919050565b60006121526014836125f1565b915061215d826127ee565b602082019050919050565b60006121756015836125f1565b915061218082612817565b602082019050919050565b60006121986016836125f1565b91506121a382612840565b602082019050919050565b60006121bb601e836125f1565b91506121c682612869565b602082019050919050565b60006121de6000836125e6565b91506121e982612892565b600082019050919050565b6000612201601f836125f1565b915061220c82612895565b602082019050919050565b6000612224601c836125f1565b915061222f826128be565b602082019050919050565b60e08201600082015161225060008501826122c8565b506020820151612263602085018261200e565b50604082015161227660408501826122c8565b5060608201516122896060850182611ff0565b50608082015161229c6080850182611ff0565b5060a08201516122af60a08501826122c8565b5060c08201516122c260c08501826120af565b50505050565b6122d181612659565b82525050565b6122e081612659565b82525050565b60006122f382848661208a565b91508190509392505050565b600061230a826121d1565b9150819050919050565b6000602082019050612329600083018461201d565b92915050565b60006020820190506123446000830184611fff565b92915050565b600060808201905061235f6000830187611fe1565b61236c602083018661201d565b61237960408301856120cd565b61238660608301846120be565b95945050505050565b60006060820190506123a46000830186611fe1565b6123b1602083018561201d565b6123be60408301846122d7565b949350505050565b60006080820190506123db6000830187611fe1565b6123e8602083018661201d565b6123f560408301856122d7565b61240260608301846120be565b95945050505050565b6000608082019050612420600083018761201d565b61242d602083018661201d565b61243a60408301856122d7565b61244760608301846120be565b95945050505050565b6000602082019050818103600083015261246a818461202c565b905092915050565b6000602082019050818103600083015261248b816120dc565b9050919050565b600060208201905081810360008301526124ab816120ff565b9050919050565b600060208201905081810360008301526124cb81612122565b9050919050565b600060208201905081810360008301526124eb81612145565b9050919050565b6000602082019050818103600083015261250b81612168565b9050919050565b6000602082019050818103600083015261252b8161218b565b9050919050565b6000602082019050818103600083015261254b816121ae565b9050919050565b6000602082019050818103600083015261256b816121f4565b9050919050565b6000602082019050818103600083015261258b81612217565b9050919050565b60006020820190506125a760008301846122d7565b92915050565b6000819050602082019050919050565b600081519050919050565b6000602082019050919050565b600082825260208201905092915050565b600081905092915050565b600082825260208201905092915050565b600061260d82612639565b9050919050565b600061261f82612639565b9050919050565b6000819050612634826128e7565b919050565b600073ffffffffffffffffffffffffffffffffffffffff82169050919050565b6000819050919050565b600061266e82612699565b9050919050565b600061268082612626565b9050919050565b600061269282612659565b9050919050565b60006126a4826126ab565b9050919050565b60006126b682612639565b9050919050565b82818337600083830152505050565b60006126d782612659565b91507fffffffffffffffffffffffffffffffffffffffffffffffffffffffffffffffff82141561270a57612709612715565b5b600182019050919050565b7f4e487b7100000000000000000000000000000000000000000000000000000000600052601160045260246000fd5b7f4e487b7100000000000000000000000000000000000000000000000000000000600052602160045260246000fd5b7f6d75737420626520746865206f776e6572000000000000000000000000000000600082015250565b7f506c65617365207375626d6974207468652061736b696e672070726963650000600082015250565b7f466565206d75737420626520657175616c20746f206c697374696e6720666565600082015250565b7f4661696c656420746f2073656e64204574686572000000000000000000000000600082015250565b7f6964206d757374203c3d206974656d20636f756e740000000000000000000000600082015250565b7f6974656d206d757374206265206f6e206d61726b657400000000000000000000600082015250565b7f4e4654206d75737420626520617070726f76656420746f206d61726b65740000600082015250565b50565b7f5265656e7472616e637947756172643a207265656e7472616e742063616c6c00600082015250565b7f5072696365206d757374206265206174206c6561737420312077656900000000600082015250565b600381106128f8576128f7612744565b5b50565b61290481612602565b811461290f57600080fd5b50565b61291b81612659565b811461292657600080fd5b5056fea2646970667358221220f6f85f1ea1e2ed1955287e7f2aaec4f46910a17828a682c1d6250c15a887050564736f6c63430008040033",
    "linkReferences": {},
    "deployedLinkReferences": {}
}